:100000000C945D000C9485000C9485000C94850084
:100010000C9485000C9485000C9485000C9485004C
:100020000C9485000C9485000C9485000C9485003C
:100030000C9485000C9485000C9485000C9485002C
:100040000C9469050C9485000C9437050C941105EB
:100050000C9485000C9485000C9485000C9485000C
:100060000C9485000C9485000000000024002700FB
:100070002A0000000000250028002B0004040404CE
:100080000404040402020202020203030303030342
:10009000010204081020408001020408102001021F
:1000A00004081020000000080002010000030407FB
:1000B0000000000000000000B30511241FBECFEFB8
:1000C000D8E0DEBFCDBF11E0A0E0B1E0E0E7F3E1B2
:1000D00002C005900D92A037B107D9F722E0A0E742
:1000E000B1E001C01D92AE32B207E1F710E0CDE5FC
:1000F000D0E004C02197FE010E94B009CC35D107A1
:10010000C9F70E94FD050C94B6090C940000AF924B
:10011000BF92CF92DF92EF92FF920F931F93CF93F4
:10012000DF936C017B018B01040F151FEB015E0156
:10013000AE18BF08C017D10759F06991D601ED91EB
:10014000FC910190F081E02DC6010995892B79F78A
:10015000C501DF91CF911F910F91FF90EF90DF903C
:10016000CF90BF90AF900895FC01538D448D252F03
:1001700030E0842F90E0821B930B541710F0CF9641
:10018000089501970895FC01918D828D981761F073
:10019000A28DAE0FBF2FB11D5D968C91928D9F5F8A
:1001A0009F73928F90E008958FEF9FEF0895FC0169
:1001B000918D828D981731F0828DE80FF11D858D1C
:1001C00090E008958FEF9FEF0895FC01918D228DAF
:1001D000892F90E0805C9F4F821B91098F73992734
:1001E000089589E791E00E94E50021E0892B09F458
:1001F00020E0822F089580E090E0892B29F00E9472
:10020000F10081110C9400000895FC01A48DA80F49
:10021000B92FB11DA35ABF4F2C91848D90E0019648
:100220008F739927848FA689B7892C93A089B18968
:100230008C91837080648C93938D848D981306C009
:100240000288F389E02D80818F7D80830895EF926D
:10025000FF920F931F93CF93DF93EC0181E0888F80
:100260009B8D8C8D98131AC0E889F989808185FF50
:1002700015C09FB7F894EE89FF896083E889F989F2
:1002800080818370806480839FBF81E090E0DF91F4
:10029000CF911F910F91FF90EF900895F62E0B8D47
:1002A00010E00F5F1F4F0F731127E02E8C8D8E1102
:1002B0000CC00FB607FCFACFE889F989808185FF69
:1002C000F5CFCE010E940501F1CFEB8DEC0FFD2F94
:1002D000F11DE35AFF4FF0829FB7F8940B8FEA8924
:1002E000FB8980818062CFCFCF93DF93EC01888D33
:1002F0008823B9F0AA89BB89E889F9898C9185FDA1
:1003000003C0808186FD0DC00FB607FCF7CF8C912E
:1003100085FFF2CF808185FFEDCFCE010E940501E0
:10032000E9CFDF91CF91089590E0FC01EC55FF4FAC
:100330002491FC01E057FF4F3491FC01E458FF4F3A
:10034000E491EE23C9F0222339F0233001F1A8F41F
:10035000213019F1223029F1F0E0EE0FFF1FEE58A5
:10036000FF4FA591B4918FB7F894EC91611126C01D
:1003700030953E233C938FBF08952730A9F0283055
:10038000C9F0243049F7809180008F7D03C08091AF
:1003900080008F7780938000DFCF84B58F7784BD16
:1003A000DBCF84B58F7DFBCF8091B0008F778093BA
:1003B000B000D2CF8091B0008F7DF9CF3E2BDACF45
:1003C000CF93DF9390E0FC01E057FF4F24918458D6
:1003D0009F4FFC0184918823D1F090E0880F991FF2
:1003E000FC01E859FF4FA591B491FC01EE58FF4F75
:1003F000C591D49161110EC09FB7F8948C91E22FF2
:10040000E0958E238C932881E223E8839FBFDF91C0
:10041000CF9108958FB7F894EC91E22BEC938FBFB6
:10042000F6CF3FB7F8948091750190917601A09135
:100430007701B091780126B5A89B05C02F3F19F030
:100440000196A11DB11D3FBFBA2FA92F982F882754
:10045000BC01CD01620F711D811D911D42E0660F2F
:10046000771F881F991F4A95D1F708958F929F9201
:10047000AF92BF92CF92DF92EF92FF924B015C015D
:100480000E9411026B017C010E9411026C197D090E
:100490008E099F09683E734081059105A8F321E00C
:1004A000821A9108A108B10888EEC80E83E0D81E10
:1004B000E11CF11C81149104A104B10429F7FF90FF
:1004C000EF90DF90CF90BF90AF909F908F90089566
:1004D000089590E080E00895FB0101900020E9F785
:1004E0003197AF01461B570BDC01ED91FC91028067
:1004F000F381E02D09948F929F92AF92BF92EF9279
:10050000FF920F931F93CF93DF93CDB7DEB7A197E1
:100510000FB6F894DEBF0FBECDBF7C01FA01CB0150
:1005200019A2223008F42AE08E010F5D1F4F822E9F
:10053000912CB12CA12CBF01A50194010E948E0920
:10054000F901CA016A300CF5605DD8016E938D0126
:10055000232B242B252B79F790E080E0109721F0B6
:10056000BD01C7010E946C02A1960FB6F894DEBFD0
:100570000FBECDBFDF91CF911F910F91FF90EF90F4
:10058000BF90AF909F908F900895695CDECF2F92BF
:100590003F924F925F926F927F928F929F92AF9213
:1005A000BF92CF92DF92EF92FF921F93CF93DF9390
:1005B000EC016A017B01722EAB019601CB01B60101
:1005C0000E9489096EE171E0811126C04601570140
:1005D000E894B7F82FEF3FEF4FE75FE7C501B401AD
:1005E0000E94890981110CC02FEF3FEF4FE75FE7B1
:1005F000C501B4010E94BF0762E271E0181664F001
:100600002FEF3FEF4FE75FE4C701B6010E941709E4
:100610001816B4F466E271E0CE01DF91CF911F911C
:10062000FF90EF90DF90CF90BF90AF909F908F9012
:100630007F906F905F904F903F902F900C946C0242
:100640002FEF3FEF4FE75FECC701B6010E94BF07F6
:1006500087FDE0CF20E030E0A901C701B6010E948C
:10066000BF07312C212C87FF0DC0E881F981019053
:10067000F081E02D6DE2CE0109951C01F7FAF094AE
:10068000F7F8F09410E060E070E080E09FE371160E
:1006900041F020E030E040E251E40E94C4071F5FD7
:1006A000F6CFA70196010E9453072B013C010E943F
:1006B00036084B015C012AE0BC01A401CE010E9476
:1006C0007B027C01E20CF31C1123E1F1C501B401B2
:1006D0000E9465089B01AC01C301B2010E94520750
:1006E0004B015C01E881F9810190F081E02D6EE21F
:1006F000CE010995E80EF91E115020F120E030E0FE
:1007000040E251E4C501B4010E941C092B013C01E7
:100710000E9436084B01B12CA12C2AE0B501A4019E
:10072000CE010E947B02E80EF91EC501B4010E94B1
:1007300065089B01AC01C301B2010E9452074B0145
:100740005C01DACFC701DF91CF911F91FF90EF904D
:10075000DF90CF90BF90AF909F908F907F906F90E1
:100760005F904F903F902F900895CF93DF93EC01CF
:1007700060E08E810E94940161E08E810E9494016C
:1007800060E08E810E9494018BE891E00197F1F77F
:10079000DF91CF910895CF92DF92EF92FF920F9366
:1007A0001F93CF93DF936C017C0187E0E80EF11C6F
:1007B000D0E0C0E0062F10E0B8010C2E02C0759505
:1007C00067950A94E2F76170F70181917F010E94B9
:1007D00094012196C430D10579F7C601DF91CF91FC
:1007E0001F910F91FF90EF90DF90CF900C94B50385
:1007F000CF92DF92EF92FF920F931F93CF93DF93ED
:10080000EC01F62E642F8C810E9494018D818F3F24
:1008100019F060E00E9494010F2D10E08F8584FF95
:1008200025C06E0187E0C80ED11CF12CE12CB80167
:100830000E2C02C0759567950A94E2F76170F60177
:1008400081916F010E949401FFEFEF1AFF0A88E087
:10085000E816F10461F7CE01DF91CF911F910F915E
:10086000FF90EF90DF90CF900C94B503B80184E037
:10087000759567958A95E1F7CE010E94CB036F2DA0
:10088000CE01DF91CF911F910F91FF90EF90DF90FC
:10089000CF900C94CB0340E0682F86E192E00C945B
:1008A000F80381E00E944B048BE39FE10197F1F78D
:1008B0000895CF93DF93823029F4909125029860B8
:1008C000909325028093290210922A0280E480935B
:1008D0002B0280E180932C0280E580932D0261E061
:1008E00080911A020E94E00180911B028F3F19F053
:1008F00061E00E94E00161E080911C020E94E00141
:10090000C6E1D2E09E01265132408091250284FD4D
:100910000BC084E090E021962817390744F461E089
:100920008E810E94E001EECF88E090E0F4CF8BE36F
:100930009DE00197F1F760E080911A020E94940116
:1009400060E080911C020E94940180911B028F3F05
:1009500019F060E00E9494018091250284FD34C06A
:1009600063E086E192E00E94CB03CBE4D6E4CE01C3
:100970000197F1F763E086E192E00E94CB032197B3
:10098000F1F763E086E192E00E94CB0383E592E019
:100990000197F1F762E086E192E00E94CB0380913B
:1009A000250280620E944B0484E0809326028CE042
:1009B0000E944B040E94510482E08093270286E04B
:1009C000DF91CF910C944B0480620E944B048BE426
:1009D00096E40197F1F78091250280620E944B0412
:1009E00083E592E00197F1F78091250280620E94F1
:1009F0004B04D5CF843008F083E090912902891709
:100A000010F08FEF890FE82FF0E0EA5EFD4F848948
:100A100080680C944B0441E00E94F80381E090E070
:100A200008951F920F920FB60F9211242F933F93A8
:100A30004F935F936F937F938F939F93AF93BF93E6
:100A4000EF93FF9389E791E00E940501FF91EF91F9
:100A5000BF91AF919F918F917F916F915F914F91D6
:100A60003F912F910F900FBE0F901F9018951F92DE
:100A70000F920FB60F9211242F938F939F93EF93A2
:100A8000FF93E0918901F0918A018081E0918F01CB
:100A9000F091900182FD1BC09081809192018F5F47
:100AA0008F7320919301821741F0E0919201F0E061
:100AB000E758FE4F958F80939201FF91EF919F91A0
:100AC0008F912F910F900FBE0F901F9018958081DE
:100AD000F4CF1F920F920FB60F9211242F933F93D2
:100AE0008F939F93AF93BF93809171019091720107
:100AF000A0917301B09174013091700123E0230F34
:100B00002D3758F50196A11DB11D209370018093DA
:100B1000710190937201A0937301B093740180915D
:100B2000750190917601A0917701B09178010196BD
:100B3000A11DB11D8093750190937601A09377015B
:100B4000B0937801BF91AF919F918F913F912F9179
:100B50000F900FBE0F901F90189526E8230F029656
:100B6000A11DB11DD2CFE9E7F1E01382128288EE18
:100B700093E0A0E0B0E084839583A683B78384E00C
:100B800091E09183808385EC90E09587848784EC65
:100B900090E09787868780EC90E0918B808B81EC4A
:100BA00090E0938B828B82EC90E0958B848B86EC2B
:100BB00090E0978B868B118E128E138E148EE6E149
:100BC000F2E01382128286E191E0918380838BE0D0
:100BD00084838FEF85838AE0868389E0878388E03A
:100BE000808787E0818786E0828713861486158652
:100BF0001686178681E00C945904789484B5826037
:100C000084BD84B5816084BD85B5826085BD85B5B0
:100C1000816085BD80916E00816080936E0010922E
:100C200081008091810082608093810080918100A9
:100C3000816080938100809180008160809380003A
:100C40008091B10084608093B1008091B000816098
:100C50008093B00080917A00846080937A008091C4
:100C60007A00826080937A0080917A00816080931C
:100C70007A0080917A00806880937A001092C10097
:100C800082E00E945904E0918901F0918A0182E09A
:100C90008083E0918501F09186011082E0918701C7
:100CA000F09188018FEC808310929101E0918D0189
:100CB000F0918E0186E08083E0918B01F0918C01B0
:100CC000808180618083E0918B01F0918C01808133
:100CD00088608083E0918B01F0918C018081806835
:100CE0008083E0918B01F0918C0180818F7D8083E6
:100CF00060E08FE00E94E00161E08CE00E94E00192
:100D000061E08DE00E94E00111E4C0E0D0E01093CA
:100D10007C0080917A00806480937A0080917A00D0
:100D200086FDFCCFE090780060917900F62E80E09F
:100D30000E94FA04B701FF0C880B990B0E94670808
:100D400020E030E040E85AE30E941C0920E030E453
:100D50004CE955E40E941C0920E030E040E251E4F7
:100D60000E94C4076B017C016AE271E089E791E0AF
:100D70000E946C0222E0B701A60189E791E00E947F
:100D8000C70269E371E086E192E00E946C0222E012
:100D9000B701A60186E192E00E94C70220E030E0A0
:100DA00040E252E4C701B6010E94BF0787FF19C0A5
:100DB00061E08DE00E94940160E08CE00E9494016B
:100DC00085E00E94FA0467E471E086E192E00E9407
:100DD0006C0268EE73E080E090E00E9436020E94B0
:100DE000510420E030E040E252E4C701B6010E9425
:100DF000170987FD23C020E030E040E752E4C70137
:100E0000B6010E94BF071816CCF060E08DE00E948A
:100E1000940161E08CE00E94940185E00E94FA0454
:100E200063E571E086E192E00E946C0268EE73E097
:100E300080E090E00E9436020E94510420E030E001
:100E400040E752E4C701B6010E9417091816CCF416
:100E500060E08DE00E94940160E08CE00E949401CB
:100E600085E00E94FA0460E671E086E192E00E946B
:100E70006C0268EE73E080E090E00E9436020E940F
:100E8000510468EC70E080E090E00E943602209708
:100E900009F43DCF0E94F100882309F438CF0E9465
:100EA000000035CF5058BB27AA270E946A070C9430
:100EB000DD080E94CF0838F00E94D60820F039F4EF
:100EC0009F3F19F426F40C94CC080EF4E095E7FB50
:100ED0000C94C608E92F0E94EE0858F3BA1762076F
:100EE00073078407950720F079F4A6F50C94100990
:100EF0000EF4E0950B2EBA2FA02D0B01B901900135
:100F00000C01CA01A0011124FF27591B99F0593F78
:100F100050F4503E68F11A16F040A22F232F342FC0
:100F20004427585FF3CF469537952795A795F0400E
:100F30005395C9F77EF41F16BA0B620B730B840B23
:100F4000BAF09150A1F0FF0FBB1F661F771F881FDB
:100F5000C2F70EC0BA0F621F731F841F48F4879533
:100F600077956795B795F7959E3F08F0B0CF939525
:100F7000880F08F09927EE0F9795879508950E949E
:100F8000A20808F481E008950E94D8070C94DD08B7
:100F90000E94D60858F00E94CF0840F029F45F3F25
:100FA00029F00C94C60851110C9411090C94CC082A
:100FB0000E94EE0868F39923B1F3552391F3951B32
:100FC000550BBB27AA2762177307840738F09F5F6A
:100FD0005F4F220F331F441FAA1FA9F335D00E2ED7
:100FE0003AF0E0E832D091505040E695001CCAF744
:100FF0002BD0FE2F29D0660F771F881FBB1F261707
:1010000037074807AB07B0E809F0BB0B802DBF01DD
:10101000FF2793585F4F3AF09E3F510578F00C94AC
:10102000C6080C9411095F3FE4F3983ED4F386950B
:1010300077956795B795F7959F5FC9F7880F911DCD
:101040009695879597F90895E1E0660F771F881FB9
:10105000BB1F621773078407BA0720F0621B730B6C
:10106000840BBA0BEE1F88F7E09508950E94F608EE
:1010700088F09F5798F0B92F9927B751B0F0E1F059
:10108000660F771F881F991F1AF0BA95C9F714C009
:10109000B13091F00E941009B1E008950C9410094C
:1010A000672F782F8827B85F39F0B93FCCF3869542
:1010B00077956795B395D9F73EF49095809570959F
:1010C00061957F4F8F4F9F4F0895E89409C097FB1C
:1010D0003EF490958095709561957F4F8F4F9F4F0F
:1010E0009923A9F0F92F96E9BB279395F695879553
:1010F00077956795B795F111F8CFFAF4BB0F11F416
:1011000060FF1BC06F5F7F4F8F4F9F4F16C08823BC
:1011100011F096E911C0772321F09EE8872F762FF2
:1011200005C0662371F096E8862F70E060E02AF033
:101130009A95660F771F881FDAF7880F969587951F
:1011400097F90895990F0008550FAA0BE0E8FEEFF4
:1011500016161706E807F907C0F012161306E4077B
:10116000F50798F0621B730B840B950B39F40A2674
:1011700061F0232B242B252B21F408950A2609F452
:10118000A140A6958FEF811D811D089597F99F6756
:1011900080E870E060E008959FEF80EC08950024FF
:1011A0000A941616170618060906089500240A94CC
:1011B00012161306140605060895092E0394000C52
:1011C00011F4882352F0BB0F40F4BF2B11F460FFE1
:1011D00004C06F5F7F4F8F4F9F4F089557FD90580A
:1011E000440F551F59F05F3F71F04795880F97FBEB
:1011F000991F61F09F3F79F08795089512161306A5
:101200001406551FF2CF4695F1DF08C016161706D3
:101210001806991FF1CF8695710561050894089508
:10122000E894BB2766277727CB0197F908950E949A
:10123000A20808F48FEF08950E942F090C94DD088E
:101240000E94CF0838F00E94D60820F0952311F0B4
:101250000C94C6080C94CC0811240C9411090E941B
:10126000EE0870F3959FC1F3950F50E0551F629FF4
:10127000F001729FBB27F00DB11D639FAA27F00DEF
:10128000B11DAA1F649F6627B00DA11D661F829F16
:101290002227B00DA11D621F739FB00DA11D621FFB
:1012A000839FA00D611D221F749F3327A00D611D18
:1012B000231F849F600D211D822F762F6A2F1124FA
:1012C0009F5750409AF0F1F088234AF0EE0FFF1F2D
:1012D000BB1F661F771F881F91505040A9F79E3F84
:1012E000510580F00C94C6080C9411095F3FE4F39B
:1012F000983ED4F3869577956795B795F795E795DA
:101300009F5FC1F7FE2B880F911D9695879597F9E2
:1013100008950E94A208880B990B0895A1E21A2E45
:10132000AA1BBB1BFD010DC0AA1FBB1FEE1FFF1F89
:10133000A217B307E407F50720F0A21BB30BE40BD9
:10134000F50B661F771F881F991F1A9469F7609520
:101350007095809590959B01AC01BD01CF010895DA
:10136000EE0FFF1F0590F491E02D0994F894FFCF44
:101370000000000027018700B4007401E500C300ED
:10138000D700000000000B058700690268026E614B
:101390006E00696E66006F76660054656D706572EA
:1013A0006174757265203D200054656D70657261D1
:1013B000747572653A2000537461626C6520F09F09
:1013C000988300416C657274212120F09FA5B500BF
:1013D0004649524520414C455254202121210000CC
:00000001FF
