:020000040000FA
:100000000C9463000C948B000C948B000C948B006C
:100010000C948B000C948B000C948B000C944B066E
:100020000C948B000C948B000C948B000C948B0024
:100030000C948B000C948B000C948B000C948B0014
:100040000C9425070C948B000C94F3060C94CD06AD
:100050000C948B000C948B000C948B000C948B00F4
:100060000C948B000C948B000000000024002700EF
:100070002A0000000000250028002B0000000000DE
:1000800023002600290004040404040404040202DA
:100090000202020203030303030301020408102007
:1000A0004080010204081020010204081020000012
:1000B0000008000201000003040700000000000027
:1000C000000002006F0711241FBECFEFD8E0DEBF93
:1000D000CDBF11E0A0E0B1E0EEE6FDE102C0059089
:1000E0000D92A43CB107D9F722E0A4ECB1E001C025
:1000F0001D92A739B207E1F710E0C3E6D0E004C0D3
:100100002197FE010E94BD0CC236D107C9F70E949B
:10011000B9070C94B50E0C940000AF92BF92CF9229
:10012000DF92EF92FF920F931F93CF93DF936C01B7
:100130007B018B01040F151FEB015E01AE18BF0898
:10014000C017D10759F06991D601ED91FC9101904A
:10015000F081E02DC6010995892B79F7C501DF9162
:10016000CF911F910F91FF90EF90DF90CF90BF90B4
:10017000AF900895FC01538D448D252F30E0842FDE
:1001800090E0821B930B541710F0CF9608950197BF
:100190000895FC01918D828D981761F0A28DAE0FAC
:1001A000BF2FB11D5D968C91928D9F5F9F73928F33
:1001B00090E008958FEF9FEF0895FC01918D828D5F
:1001C000981731F0828DE80FF11D858D90E008952C
:1001D0008FEF9FEF0895FC01918D228D892F90E084
:1001E000805C9F4F821B91098F73992708958EED34
:1001F00091E00E94EB0021E0892B09F420E0822F9E
:10020000089580E090E0892B29F00E94F700811189
:100210000C9400000895FC01A48DA80FB92FB11D06
:10022000A35ABF4F2C91848D90E001968F7399272C
:10023000848FA689B7892C93A089B1898C9183700A
:1002400080648C93938D848D981306C00288F38903
:10025000E02D80818F7D80830895EF92FF920F9330
:100260001F93CF93DF93EC0181E0888F9B8D8C8D62
:1002700098131AC0E889F989808185FF15C09FB756
:10028000F894EE89FF896083E889F9898081837019
:10029000806480839FBF81E090E0DF91CF911F91C8
:1002A0000F91FF90EF900895F62E0B8D10E00F5FE9
:1002B0001F4F0F731127E02E8C8D8E110CC00FB6BF
:1002C00007FCFACFE889F989808185FFF5CFCE0157
:1002D0000E940B01F1CFEB8DEC0FFD2FF11DE35AC6
:1002E000FF4FF0829FB7F8940B8FEA89FB898081DA
:1002F0008062CFCFCF93DF93EC01888D8823B9F054
:10030000AA89BB89E889F9898C9185FD03C0808120
:1003100086FD0DC00FB607FCF7CF8C9185FFF2CF9D
:10032000808185FFEDCFCE010E940B01E9CFDF91E7
:10033000CF910895833081F028F4813099F0823094
:10034000A9F008958730A9F08830C9F08430B1F45D
:10035000809180008F7D03C0809180008F77809393
:100360008000089584B58F7784BD089584B58F7D0E
:10037000FBCF8091B0008F778093B000089580917B
:10038000B0008F7DF9CFCF93DF93282F30E0F901B4
:10039000E255FF4F8491F901E656FF4FD491F901E0
:1003A000EA57FF4FC491CC23A1F081110E949A011A
:1003B000EC2FF0E0EE0FFF1FE458FF4FA591B49132
:1003C000EC91ED2381E090E009F480E0DF91CF91A2
:1003D000089580E090E0FACF1F93CF93DF93282F0A
:1003E00030E0F901E255FF4F8491F901E656FF4FE5
:1003F000D491F901EA57FF4FC491CC23A9F0162FED
:1004000081110E949A01EC2FF0E0EE0FFF1FEE58D1
:10041000FF4FA591B4918FB7F894EC91111108C0DA
:10042000D095DE23DC938FBFDF91CF911F9108958C
:10043000DE2BF8CFCF93DF9390E0FC01E656FF4F21
:1004400024918A579F4FFC0184918823C9F090E042
:10045000880F991FFC01E859FF4FA591B491FC0149
:10046000EE58FF4FC591D49161110DC09FB7F8941C
:100470008C91209582238C938881282328839FBF89
:10048000DF91CF910895623051F49FB7F8943C9179
:10049000822F809583238C93E8812E2BEFCF8FB70B
:1004A000F894EC912E2B2C938FBFEACF3FB7F894A2
:1004B0008091D3019091D401A091D501B091D60142
:1004C00026B5A89B05C02F3F19F00196A11DB11DAF
:1004D0003FBFBA2FA92F982F8827BC01CD01620FEB
:1004E000711D811D911D42E0660F771F881F991FA6
:1004F0004A95D1F708958F929F92AF92BF92CF9273
:10050000DF92EF92FF920E9456024B015C0184EF52
:10051000C82EDD24D394E12CF12C0E9456026819D8
:1005200079098A099B09683E734081059105A8F302
:1005300021E0C21AD108E108F10888EE880E83E0B4
:10054000981EA11CB11CC114D104E104F10429F7C7
:10055000FF90EF90DF90CF90BF90AF909F908F90E3
:100560000895089590E080E00895CF93DF93EC0123
:1005700060E08E810E94EC0161E08E810E94EC01BE
:1005800060E08E810E94EC018BE891E00197F1F729
:10059000DF91CF910895CF92DF92EF92FF920F9368
:1005A0001F93CF93DF936C017C0187E0E80EF11C71
:1005B000D0E0C0E0062F10E0B8010C2E02C0759507
:1005C00067950A94E2F76170F70181917F010E94BB
:1005D000EC012196C430D10579F7C601DF91CF91A6
:1005E0001F910F91FF90EF90DF90CF900C94B50288
:1005F000CF92DF92EF92FF920F931F93CF93DF93EF
:10060000EC01F62E642F8C810E94EC018D818F3FCE
:1006100019F060E00E94EC010F2D10E08F8584FF3F
:1006200025C06E0187E0C80ED11CF12CE12CB80169
:100630000E2C02C0759567950A94E2F76170F60179
:1006400081916F010E94EC01FFEFEF1AFF0A88E031
:10065000E816F10461F7CE01DF91CF911F910F9160
:10066000FF90EF90DF90CF900C94B502B80184E03A
:10067000759567958A95E1F7CE010E94CB026F2DA3
:10068000CE01DF91CF911F910F91FF90EF90DF90FE
:10069000CF900C94CB0240E0682F8BE792E00C9453
:1006A000F80281E00E944B038BE39FE10197F1F791
:1006B0000895CF93DF93823029F490918A02986055
:1006C00090938A0280938E0210928F0280E480932E
:1006D000900280E18093910280E58093920261E034
:1006E00080917F020E941A02809180028F3F19F050
:1006F00061E00E941A0261E0809181020E941A0268
:10070000CBE7D2E09E012B57324080918A0284FDD4
:100710000BC084E090E021962817390744F461E08B
:100720008E810E941A02EECF88E090E0F4CF8BE336
:100730009DE00197F1F760E080917F020E94EC015B
:1007400060E0809181020E94EC01809180028F3FE5
:1007500019F060E00E94EC0180918A0284FD34C0AF
:1007600063E08BE792E00E94CB02CBE4D6E4CE01BB
:100770000197F1F763E08BE792E00E94CB022197AB
:10078000F1F763E08BE792E00E94CB0283E592E011
:100790000197F1F762E08BE792E00E94CB02809133
:1007A0008A0280620E944B0384E080938B028CE07B
:1007B0000E944B030E94510382E080938C0286E0EA
:1007C000DF91CF910C944B0380620E944B038BE42A
:1007D00096E40197F1F780918A0280620E944B03B0
:1007E00083E592E00197F1F780918A0280620E948E
:1007F0004B03D5CF41E00E94F80281E090E00895DC
:10080000FC0180819181009711F00C945F0D089597
:100810000F931F93CF93DF93EC0188819981009709
:1008200059F02A813B812617370730F081E0DF91AC
:10083000CF911F910F9108958B016F5F7F4F0E94A1
:10084000E80D009759F0998388831B830A832C81D4
:100850003D81232B59F7FC011082E8CF80E0E7CFE0
:10086000EF92FF920F931F93CF93DF93EC017B01E5
:100870008A01BA010E94080428813981811114C0BB
:100880002115310519F0C9010E945F0D19821882E6
:100890001D821C821B821A82CE01DF91CF911F9193
:1008A0000F91FF90EF9008951D830C83B701C9014C
:1008B0000E94AE0EF1CFFC011182108213821282CF
:1008C00015821482FB0101900020E9F73197AF01F6
:1008D000461B570B0C943004FB0101900020E9F7F4
:1008E0003197AF01461B570BDC01ED91FC91028063
:1008F000F381E02D09948F929F92AF92BF920F9354
:100900001F93CF93DF93CDB7DEB7A1970FB6F894BF
:10091000DEBF0FBECDBF19A2423008F44AE08E01FF
:100920000F5D1F4F842E912CB12CA12CA501940199
:100930000E94830BE62FB901CA01EA3004F5E05D9D
:10094000D801EE938D01232B242B252B79F790E0F2
:1009500080E0109729F0BD018BE792E00E946C04C3
:10096000A1960FB6F894DEBF0FBECDBFDF91CF9139
:100970001F910F91BF90AF909F908F900895E95C69
:10098000DFCFEF92FF920F931F93CF93DF9300D0AF
:1009900000D000D0CDB7DEB78C017B0161E082E0F2
:1009A0000E94EC0160E083E00E94EC01D801149603
:1009B0008D919C911597892B29F0ED91FC91808167
:1009C000811107C047E050E065E271E0C8010E9474
:1009D0003004E0918E02E43008F055C0E150F0E0C0
:1009E000E558FD4F848980680E944B03F8014481DB
:1009F0005581608171818BE792E00E948D0080912A
:100A000000018C3009F441C08F3F09F468C00E9496
:100A10007B020E94510380E00E94C301892B09F4EC
:100A200029C181E00E94C301892B09F423C11A82E4
:100A300019821C821B821E821D82D7016D917C91BE
:100A400011976115710539F014964D915C91CE01A5
:100A500001960E9430040D811E81095E1F4FB8016E
:100A6000CE0101960E94080429813A818111E6C0D5
:100A70002115310509F00BC11A8219821E821D82CF
:100A80001C821B82E5C0E3E0AACFE2ECF0E0149107
:100A900017FDBDCF61E08CE00E941A02112309F41A
:100AA0008DC0123009F0A2C08091B100887F8360B0
:100AB0008093B1008BEE8093B30082E498E0A0E0D5
:100AC000B0E08093DA019093DB01A093DC01B09356
:100AD000DD018091700082608093700098CF8CE07F
:100AE00080930001E2ECF0E014911F3F09F48FCFF6
:100AF000113021F150F0123009F43EC017FD87CFBC
:100B000061E08CE00E941A02CCCF14BC15BC84B505
:100B1000826084BD85B5816085BDE2E9F0E0E49145
:100B2000F0E0EE0FFF1FEE58FF4F85919491E6EA3B
:100B3000F0E0E491E093C50110E0ACCF10928000AA
:100B40001092810080918100886080938100809163
:100B50008100816080938100E2E9F0E0E491F0E0BF
:100B6000EE0FFF1FEE58FF4F85919491E6EAF0E0FB
:100B7000E491E093C4018ECF1092B0001092B100C6
:100B80008091B00082608093B0008091B10081605C
:100B90008093B100E2E9F0E0E491F0E0EE0FFF1F96
:100BA000EE58FF4F859194919093D8018093D7018F
:100BB000E6EAF0E0E491E093D9016CCF85B5887F57
:100BC000836085BD85E787BD82E498E0A0E0B0E062
:100BD0008093CA019093CB01A093CC01B093CD0137
:100BE00080916E00826080936E0011CF1130F1F41D
:100BF00080918100887F8160809381008FE89DE1F2
:100C0000909389008093880082E498E0A0E0B0E0AF
:100C10008093C6019093C701A093C801B093C90106
:100C200080916F00826080936F00F1CE123021F0CE
:100C30001111EDCE8FE8C7CF8FE83DCF8D819E811A
:100C40006DE271E0820F931F0E94AE0E1E830D8332
:100C50004D815E8169817A818EED91E00E948D00E7
:100C600065E471E08EED91E00E946C04CE01019686
:100C70000E94000426960FB6F894DEBF0FBECDBFCB
:100C8000DF91CF911F910F91FF90EF900895C901CF
:100C90000E945F0DF1CE1F920F920FB60F9211249A
:100CA0002F933F934F935F936F937F938F939F9374
:100CB000AF93BF93EF93FF938091DA019091DB01A3
:100CC000A091DC01B091DD01892B8A2B8B2BD1F116
:100CD0009091D901E091D701F091D80180818927C5
:100CE00080838091DA019091DB01A091DC01B091C9
:100CF000DD01181619061A061B069CF48091DA010C
:100D00009091DB01A091DC01B091DD010197A10977
:100D1000B1098093DA019093DB01A093DC01B093D9
:100D2000DD01FF91EF91BF91AF919F918F917F91E5
:100D30006F915F914F913F912F910F900FBE0F9048
:100D40001F90189580910001E2ECF0E0E4919FEF94
:100D500090930001E13051F030F0E23069F060E052
:100D60000E94EC01DECF10926E00F9CF90916F00DF
:100D70009D7F90936F00F3CF909170009D7F909333
:100D8000700091E09093B0009091B100987F9460D2
:100D90009093B1001092B300E2CF1F920F920FB662
:100DA0000F9211242F933F934F935F936F937F93F1
:100DB0008F939F93AF93BF93EF93FF938EED91E04B
:100DC0000E940B01FF91EF91BF91AF919F918F9185
:100DD0007F916F915F914F913F912F910F900FBE37
:100DE0000F901F9018951F920F920FB60F9211241B
:100DF0002F938F939F93EF93FF93E091EE01F091E8
:100E0000EF018081E091F401F091F50182FD1BC0BA
:100E100090818091F7018F5F8F732091F801821785
:100E200041F0E091F701F0E0E252FE4F958F8093A0
:100E3000F701FF91EF919F918F912F910F900FBE2E
:100E40000F901F9018958081F4CF1F920F920FB6CC
:100E50000F9211242F933F938F939F93AF93BF9340
:100E60008091CF019091D001A091D101B091D20198
:100E70003091CE0123E0230F2D3758F50196A11DA7
:100E8000B11D2093CE018093CF019093D001A09308
:100E9000D101B093D2018091D3019091D401A0915E
:100EA000D501B091D6010196A11DB11D8093D3014A
:100EB0009093D401A093D501B093D601BF91AF9187
:100EC0009F918F913F912F910F900FBE0F901F9088
:100ED000189526E8230F0296A11DB11DD2CFEEED85
:100EE000F1E01382128288EE93E0A0E0B0E0848308
:100EF0009583A683B7838BE091E09183808385EC13
:100F000090E09587848784EC90E09787868780ECD3
:100F100090E0918B808B81EC90E0938B828B82ECC4
:100F200090E0958B848B86EC90E0978B868B118E6E
:100F3000128E138E148EEBE7F2E0138212828DE193
:100F400091E09183808389E084838FEF858388E0BB
:100F5000868387E0878386E0808785E0818784E0D9
:100F600082871386148615861686178681E00C9470
:100F70005903CF93DF93CDB7DEB72C970FB6F89414
:100F8000DEBF0FBECDBF789484B5826084BD84B5CA
:100F9000816084BD85B5826085BD85B5816085BD74
:100FA00080916E00816080936E001092810080912C
:100FB00081008260809381008091810081608093B4
:100FC0008100809180008160809380008091B100D9
:100FD00084608093B1008091B00081608093B00004
:100FE00080917A00846080937A0080917A00826098
:100FF00080937A0080917A00816080937A0080915A
:101000007A00806880937A001092C10060E08DE0E1
:101010000E941A0282E00E945903E091EE01F091D1
:10102000EF0182E08083E091EA01F091EB01108210
:10103000E091EC01F091ED018FEC80831092F601CC
:10104000E091F201F091F30186E08083E091F001FC
:10105000F091F101808180618083E091F001F09155
:10106000F101808188608083E091F001F091F101CD
:10107000808180688083E091F001F091F1018081AE
:101080008F7D808360E08FE00E941A0262E08AE038
:101090000E941A0262E08BE00E941A0261E08CE07A
:1010A0000E941A0260E080E00E94EC0160E081E0B2
:1010B0000E94EC0181E4382E00E010E08DE00E94F7
:1010C000C301892BA1F460E082E00E94EC0160E0A2
:1010D00083E00E94EC010E9451030115110571F398
:1010E0000E94F700882351F30E940000E7CF30925E
:1010F0007C0080917A00806480937A0080917A00ED
:1011000086FDFCCF8091780060917900762F682F62
:10111000072E000C880B990B0E942F0A20E030E06C
:1011200040E85AE30E948E0A20E030E44CE955E49E
:101130000E948E0A20E030E040E251E40E94120C4E
:101140006B017C01E1E080918E028111E0E0E1958C
:10115000F0E0E558FD4F848980680E944B0368E405
:1011600071E08BE792E00E946C0465E471E08BE72C
:1011700092E00E946C04A7019601C701B6010E948B
:10118000B80C6FE471E081111AC026013701E894B0
:1011900077F82FEF3FEF4FE75FE7C301B2010E94FF
:1011A000B80C811144C02FEF3FEF4FE75FE7C30159
:1011B000B2010E94280A1816D4F563E571E08BE7A6
:1011C00092E00E946C048AE00E94C301019709F436
:1011D000A7C08BE00E94C301019709F4A1C020E0E1
:1011E00030E040E252E4C701B6010E94B30C87FF31
:1011F000A1C061E083E00E94EC0160E082E00E9417
:10120000EC01E0918E02E43008F020C1E150F0E002
:10121000E558FD4F848980680E944B036BE571E0BF
:101220008BE792E00E946C040E947B0254CF2FEF68
:101230003FEF4FE75FE4C701B6010E94B30C1816F9
:101240001CF467E571E0BBCF2FEF3FEF4FE75FEC9A
:10125000C701B6010E94280A87FDF3CF20E030E0E5
:10126000A901C701B6010E94280A87FF56C041E0C4
:101270006DE28BE792E00E94F802C701B601905838
:101280002AE037ED43EA5BE30E94A60B4B015C01C9
:101290000E94840C2B013C010E942D0A9B01AC0191
:1012A000C501B4010E94A50B4B015C014AE0C301DA
:1012B000B2010E947B0441E06EE28BE792E00E9463
:1012C000F80220E030E040E251E4C501B4010E94A0
:1012D0008E0A4B015C010E94840C2B01712C612C45
:1012E0004AE0C301B2010E947B04C301B2010E9423
:1012F0002D0A9B01AC01C501B4010E94A50B20E0A1
:1013000030E040E251E40E948E0A0E94840C90E09A
:1013100080E04AE00E947B0456CFC701B601B0CFFF
:1013200020E030E040E252E4C701B6010E94B30C75
:1013300087FD25C020E030E040E752E4C701B60158
:101340000E94280A1816DCF064E671E0CE010796C8
:101350000E945B0461E871E0CE0101960E945B048B
:10136000BE01695F7F4FCE0101960E94C104CE018C
:1013700001960E940004CE0107960E94000420E01E
:1013800030E040E752E4C701B6010E94B30C1816E2
:10139000DCF469E871E0CE0107960E945B046FE916
:1013A00071E0CE0101960E945B04BE01695F7F4F30
:1013B000CE0101960E94C104CE0101960E94000454
:1013C000CE0107960E9400048AE00E94C3010197A3
:1013D000D9F468EA71E0CE0107960E945B0467E4E5
:1013E00071E0CE0101960E945B04BE01695F7F4FF0
:1013F000CE0101960E94C104CE0101960E94000414
:10140000CE0107960E9400048BE00E94C301019761
:1014100009F063CE65EB71E0CE0107960E945B0494
:1014200065EB71E0CE0101960E945B04BE01695F2D
:101430007F4FCE0101960E94C104CE0101960E9409
:101440000004CE0107960E94000447CEE3E0DFCE01
:101450000E946A0A08F481E00895E89409C097FBA5
:101460003EF490958095709561957F4F8F4F9F4F7B
:101470009923A9F0F92F96E9BB279395F6958795BF
:1014800077956795B795F111F8CFFAF4BB0F11F482
:1014900060FF1BC06F5F7F4F8F4F9F4F16C0882329
:1014A00011F096E911C0772321F09EE8872F762F5F
:1014B00005C0662371F096E8862F70E060E02AF0A0
:1014C0009A95660F771F881FDAF7880F969587958C
:1014D00097F90895990F0008550FAA0BE0E8FEEF61
:1014E00016161706E807F907C0F012161306E407E8
:1014F000F50798F0621B730B840B950B39F40A26E1
:1015000061F0232B242B252B21F408950A2609F4BE
:10151000A140A6958FEF811D811D08950E94A10A0B
:101520000C94120B0E94040B38F00E940B0B20F05D
:10153000952311F00C94FB0A0C94010B11240C94CC
:10154000460B0E94230B70F3959FC1F3950F50E05B
:10155000551F629FF001729FBB27F00DB11D639F65
:10156000AA27F00DB11DAA1F649F6627B00DA11D0B
:10157000661F829F2227B00DA11D621F739FB00DB1
:10158000A11D621F839FA00D611D221F749F332721
:10159000A00D611D231F849F600D211D822F762FBA
:1015A0006A2F11249F5750409AF0F1F088234AF097
:1015B000EE0FFF1FBB1F661F771F881F9150504003
:1015C000A9F79E3F510580F00C94FB0A0C94460B42
:1015D0005F3FE4F3983ED4F3869577956795B7958A
:1015E000F795E7959F5FC1F7FE2B880F911D9695A4
:1015F000879597F9089597F99F6780E870E060E014
:1016000008959FEF80EC089500240A94161617069B
:1016100018060906089500240A94121613061406E3
:1016200005060895092E0394000C11F4882352F046
:10163000BB0F40F4BF2B11F460FF04C06F5F7F4FFE
:101640008F4F9F4F089557FD9058440F551F59F0E5
:101650005F3F71F04795880F97FB991F61F09F3F9F
:1016600079F087950895121613061406551FF2CFC8
:101670004695F1DF08C0161617061806991FF1CF18
:1016800086957105610508940895E894BB2766273F
:101690007727CB0197F908952F923F924F925F924F
:1016A0006F927F928F929F92AF92BF92CF92DF9272
:1016B000EF92FF920F931F93CF93DF93CDB7DEB7D7
:1016C000CA1BDB0B0FB6F894DEBF0FBECDBF09946B
:1016D0002A88398848885F846E847D848C849B84C2
:1016E000AA84B984C884DF80EE80FD800C811B81D0
:1016F000AA81B981CE0FD11D0FB6F894DEBF0FBEFF
:10170000CDBFED010895A1E21A2EAA1BBB1BFD015E
:101710000DC0AA1FBB1FEE1FFF1FA217B307E407D0
:10172000F50720F0A21BB30BE40BF50B661F771F28
:10173000881F991F1A9469F7609570958095909508
:101740009B01AC01BD01CF0108955058BB27AA27CA
:101750000E94BD0B0C94120B0E94040B38F00E94E7
:101760000B0B20F039F49F3F19F426F40C94010B75
:101770000EF4E095E7FB0C94FB0AE92F0E94230B83
:1017800058F3BA17620773078407950720F079F4B6
:10179000A6F50C94450B0EF4E0950B2EBA2FA02D58
:1017A0000B01B90190010C01CA01A0011124FF270E
:1017B000591B99F0593F50F4503E68F11A16F04009
:1017C000A22F232F342F4427585FF3CF4695379508
:1017D0002795A795F0405395C9F77EF41F16BA0BCD
:1017E000620B730B840BBAF09150A1F0FF0FBB1F7B
:1017F000661F771F881FC2F70EC0BA0F621F731FC4
:10180000841F48F4879577956795B795F7959E3F20
:1018100008F0B0CF9395880F08F09927EE0F9795B1
:10182000879508950E94260C0C94120B0E940B0BB6
:1018300058F00E94040B40F029F45F3F29F00C940B
:10184000FB0A51110C94460B0C94010B0E94230BC4
:1018500068F39923B1F3552391F3951B550BBB27DF
:10186000AA2762177307840738F09F5F5F4F220F24
:10187000331F441FAA1FA9F335D00E2E3AF0E0E81B
:1018800032D091505040E695001CCAF72BD0FE2F65
:1018900029D0660F771F881FBB1F261737074807F9
:1018A000AB07B0E809F0BB0B802DBF01FF279358B1
:1018B0005F4F3AF09E3F510578F00C94FB0A0C9470
:1018C000460B5F3FE4F3983ED4F386957795679592
:1018D000B795F7959F5FC9F7880F911D96958795E6
:1018E00097F90895E1E0660F771F881FBB1F621705
:1018F00073078407BA0720F0621B730B840BBA0BC3
:10190000EE1F88F7E09508950E942B0B88F09F57F3
:1019100098F0B92F9927B751B0F0E1F0660F771F13
:10192000881F991F1AF0BA95C9F714C0B13091F009
:101930000E94450BB1E008950C94450B672F782F5A
:101940008827B85F39F0B93FCCF3869577956795CE
:10195000B395D9F73EF490958095709561957F4F3A
:101960008F4F9F4F08950E946A0A08F48FEF0895E1
:101970000E946A0A880B990B0895EE0FFF1F0590CD
:10198000F491E02D09940F931F93CF93DF9382304E
:10199000910510F482E090E0E0919502F0919602BA
:1019A00030E020E0B0E0A0E0309799F42115310557
:1019B00009F44AC0281B390B24303105D8F58A8137
:1019C0009B816115710589F1FB0193838283FE017F
:1019D00011C0408151810281138148175907E0F0FD
:1019E0004817590799F4109761F012960C931297C3
:1019F00013961C933296CF01DF91CF911F910F91D7
:101A000008950093950210939602F4CF21153105A5
:101A100051F04217530738F0A901DB019A01BD01CB
:101A2000DF01F801C1CFEF01F9CF909396028093C7
:101A30009502CDCFFE01E20FF31F819391932250C7
:101A4000310939832883D7CF2091930230919402B2
:101A5000232B41F42091030130910401309394022F
:101A6000209393022091010130910201211531054B
:101A700041F42DB73EB74091050150910601241B5A
:101A8000350BE0919302F0919402E217F307A0F472
:101A90002E1B3F0B2817390778F0AC014E5F5F4FC4
:101AA0002417350748F04E0F5F1F50939402409360
:101AB0009302819391939FCFF0E0E0E09CCFCF938E
:101AC000DF930097E9F0FC01329713821282A09114
:101AD0009502B0919602ED0130E020E01097A1F45C
:101AE00020813181820F931F2091930230919402C3
:101AF0002817390709F061C0F0939402E09393022C
:101B0000DF91CF910895EA01CE17DF07E8F54A810A
:101B10005B819E0141155105B1F7E901FB83EA8321
:101B200049915991C40FD51FEC17FD0761F48081CD
:101B300091810296840F951FE901998388838281A0
:101B400093819B838A83F0E0E0E012968D919C91D3
:101B500013970097B9F52D913C911197CD010296FD
:101B6000820F931F20919302309194022817390716
:101B700039F6309751F51092960210929502B09373
:101B80009402A0939302BCCFD383C283408151813E
:101B9000840F951FC817D90761F44E5F5F4F888186
:101BA0009981480F591F518340838A819B81938378
:101BB00082832115310509F0B0CFF0939602E093AE
:101BC00095029ECFFD01DC01C0CF13821282D7CFD8
:101BD000B0E0A0E0EEEEFDE00C944E0B8C0100971F
:101BE00051F4CB010E94C30C8C01C801CDB7DEB704
:101BF000E0E10C946A0BFC01E60FF71F9C012250F8
:101C00003109E217F30708F49DC0D901CD91DC91A9
:101C10001197C617D70798F0C530D10530F3CE011C
:101C200004978617970708F3C61BD70B2297C19313
:101C3000D1936D937C93CF010E945F0DD6CF5B0152
:101C4000AC1ABD0A4C018C0E9D1EA0919502B0915C
:101C50009602512C412CF12CE12C109731F58091FA
:101C60009302909194028815990509F05CC046167C
:101C7000570608F058C08091010190910201009729
:101C800041F48DB79EB74091050150910601841B28
:101C9000950BE817F90708F055C0F0939402E0930C
:101CA0009302F90171836083A0CF8D919C9111976C
:101CB00012966C90129713967C901397A815B905FD
:101CC00059F56C0142E0C40ED11CCA14DB0420F1AA
:101CD000AC014A195B09DA011296159780F062820D
:101CE000738251834083D9016D937C93E114F10495
:101CF00071F0D7011396FC93EE93129776CF22964C
:101D00008C0F9D1FF90191838083F301EFCFF09336
:101D10009602E093950269CF4816590608F42C0103
:101D20007D01D3019ACFCB010E94C30C7C010097A7
:101D300049F0AE01B8010E94A50EC8010E945F0DD6
:101D4000870153CF10E000E050CFFB01DC0102C05F
:101D500001900D9241505040D8F70895FB01DC01ED
:101D600001900D920020E1F70895F894FFCFFF0055
:101D70000097028000000000002D018D00BA007A5B
:101D800001EB00C900DD0000000000FA038D00B285
:101D900002B10245737461626C6500536520612075
:101DA000636F6E65637461646F20424C5545544F98
:101DB0004F48000D0A0054656D703A20006E616E48
:101DC00000696E66006F76660045737461626C65CB
:101DD0002000414C45525441212054656D7065727C
:101DE000617475726120657863657369766100411D
:101DF0004C455254412100414C45525441212069E7
:101E00006E63656E64696F20F09F94A500496E63F0
:101E1000656E64696F00476173204465746563741F
:101E2000656400466C616D65204465746563746526
:021E300064004C
:107E0000112484B714BE81FFF0D085E080938100F7
:107E100082E08093C00088E18093C10086E0809377
:107E2000C20080E18093C4008EE0C9D0259A86E02C
:107E300020E33CEF91E0309385002093840096BBD3
:107E4000B09BFECF1D9AA8958150A9F7CC24DD24C4
:107E500088248394B5E0AB2EA1E19A2EF3E0BF2EE7
:107E6000A2D0813461F49FD0082FAFD0023811F036
:107E7000013811F484E001C083E08DD089C08234E0
:107E800011F484E103C0853419F485E0A6D080C0E4
:107E9000853579F488D0E82EFF2485D0082F10E0AE
:107EA000102F00270E291F29000F111F8ED06801E7
:107EB0006FC0863521F484E090D080E0DECF843638
:107EC00009F040C070D06FD0082F6DD080E0C81688
:107ED00080E7D80618F4F601B7BEE895C0E0D1E017
:107EE00062D089930C17E1F7F0E0CF16F0E7DF06D8
:107EF00018F0F601B7BEE89568D007B600FCFDCFD4
:107F0000A601A0E0B1E02C9130E011968C91119780
:107F100090E0982F8827822B932B1296FA010C0160
:107F200087BEE89511244E5F5F4FF1E0A038BF0790
:107F300051F7F601A7BEE89507B600FCFDCF97BE46
:107F4000E89526C08437B1F42ED02DD0F82E2BD052
:107F50003CD0F601EF2C8F010F5F1F4F84911BD097
:107F6000EA94F801C1F70894C11CD11CFA94CF0C13
:107F7000D11C0EC0853739F428D08EE10CD085E9AC
:107F80000AD08FE07ACF813511F488E018D01DD067
:107F900080E101D065CF982F8091C00085FFFCCF94
:107FA0009093C60008958091C00087FFFCCF809118
:107FB000C00084FD01C0A8958091C6000895E0E648
:107FC000F0E098E1908380830895EDDF803219F02E
:107FD00088E0F5DFFFCF84E1DECF1F93182FE3DFCA
:107FE0001150E9F7F2DF1F91089580E0E8DFEE27F6
:047FF000FF270994CA
:027FFE00040479
:00000001FF
