:020000040000FA
:100000000C945D000C9485000C9485000C94850084
:100010000C9485000C9485000C9485000C9485004C
:100020000C9485000C9485000C9485000C9485003C
:100030000C9485000C9485000C9485000C9485002C
:100040000C9469050C9485000C9437050C941105EB
:100050000C9485000C9485000C9485000C9485000C
:100060000C9485000C9485000000000024002700FB
:100070002A0000000000250028002B0004040404CE
:100080000404040402020202020203030303030342
:10009000010204081020408001020408102001021F
:1000A00004081020000000080002010000030407FB
:1000B0000000000000000000B30511241FBECFEFB8
:1000C000D8E0DEBFCDBF11E0A0E0B1E0E8E7F3E1AA
:1000D00002C005900D92A636B107D9F722E0A6E638
:1000E000B1E001C01D92A632B207E1F710E0CDE504
:1000F000D0E004C02197FE010E94B409CC35D1079D
:10010000C9F70E94FD050C94BA090C940000AF9247
:10011000BF92CF92DF92EF92FF920F931F93CF93F4
:10012000DF936C017B018B01040F151FEB015E0156
:10013000AE18BF08C017D10759F06991D601ED91EB
:10014000FC910190F081E02DC6010995892B79F78A
:10015000C501DF91CF911F910F91FF90EF90DF903C
:10016000CF90BF90AF900895FC01538D448D252F03
:1001700030E0842F90E0821B930B541710F0CF9641
:10018000089501970895FC01918D828D981761F073
:10019000A28DAE0FBF2FB11D5D968C91928D9F5F8A
:1001A0009F73928F90E008958FEF9FEF0895FC0169
:1001B000918D828D981731F0828DE80FF11D858D1C
:1001C00090E008958FEF9FEF0895FC01918D228DAF
:1001D000892F90E0805C9F4F821B91098F73992734
:1001E000089581E791E00E94E50021E0892B09F460
:1001F00020E0822F089580E090E0892B29F00E9472
:10020000F10081110C9400000895FC01A48DA80F49
:10021000B92FB11DA35ABF4F2C91848D90E0019648
:100220008F739927848FA689B7892C93A089B18968
:100230008C91837080648C93938D848D981306C009
:100240000288F389E02D80818F7D80830895EF926D
:10025000FF920F931F93CF93DF93EC0181E0888F80
:100260009B8D8C8D98131AC0E889F989808185FF50
:1002700015C09FB7F894EE89FF896083E889F989F2
:1002800080818370806480839FBF81E090E0DF91F4
:10029000CF911F910F91FF90EF900895F62E0B8D47
:1002A00010E00F5F1F4F0F731127E02E8C8D8E1102
:1002B0000CC00FB607FCFACFE889F989808185FF69
:1002C000F5CFCE010E940501F1CFEB8DEC0FFD2F94
:1002D000F11DE35AFF4FF0829FB7F8940B8FEA8924
:1002E000FB8980818062CFCFCF93DF93EC01888D33
:1002F0008823B9F0AA89BB89E889F9898C9185FDA1
:1003000003C0808186FD0DC00FB607FCF7CF8C912E
:1003100085FFF2CF808185FFEDCFCE010E940501E0
:10032000E9CFDF91CF91089590E0FC01EC55FF4FAC
:100330002491FC01E057FF4F3491FC01E458FF4F3A
:10034000E491EE23C9F0222339F0233001F1A8F41F
:10035000213019F1223029F1F0E0EE0FFF1FEE58A5
:10036000FF4FA591B4918FB7F894EC91611126C01D
:1003700030953E233C938FBF08952730A9F0283055
:10038000C9F0243049F7809180008F7D03C08091AF
:1003900080008F7780938000DFCF84B58F7784BD16
:1003A000DBCF84B58F7DFBCF8091B0008F778093BA
:1003B000B000D2CF8091B0008F7DF9CF3E2BDACF45
:1003C000CF93DF9390E0FC01E057FF4F24918458D6
:1003D0009F4FFC0184918823D1F090E0880F991FF2
:1003E000FC01E859FF4FA591B491FC01EE58FF4F75
:1003F000C591D49161110EC09FB7F8948C91E22FF2
:10040000E0958E238C932881E223E8839FBFDF91C0
:10041000CF9108958FB7F894EC91E22BEC938FBFB6
:10042000F6CF3FB7F89480916B0190916C01A09149
:100430006D01B0916E0126B5A89B05C02F3F19F044
:100440000196A11DB11D3FBFBA2FA92F982F882754
:10045000BC01CD01620F711D811D911D42E0660F2F
:10046000771F881F991F4A95D1F708958F929F9201
:10047000AF92BF92CF92DF92EF92FF924B015C015D
:100480000E9411026B017C010E9411026C197D090E
:100490008E099F09683E734081059105A8F321E00C
:1004A000821A9108A108B10888EEC80E83E0D81E10
:1004B000E11CF11C81149104A104B10429F7FF90FF
:1004C000EF90DF90CF90BF90AF909F908F90089566
:1004D000089590E080E00895FB0101900020E9F785
:1004E0003197AF01461B570BDC01ED91FC91028067
:1004F000F381E02D09948F929F92AF92BF92EF9279
:10050000FF920F931F93CF93DF93CDB7DEB7A197E1
:100510000FB6F894DEBF0FBECDBF7C01FA01CB0150
:1005200019A2223008F42AE08E010F5D1F4F822E9F
:10053000912CB12CA12CBF01A50194010E9492091C
:10054000F901CA016A300CF5605DD8016E938D0126
:10055000232B242B252B79F790E080E0109721F0B6
:10056000BD01C7010E946C02A1960FB6F894DEBFD0
:100570000FBECDBFDF91CF911F910F91FF90EF90F4
:10058000BF90AF909F908F900895695CDECF2F92BF
:100590003F924F925F926F927F928F929F92AF9213
:1005A000BF92CF92DF92EF92FF921F93CF93DF9390
:1005B000EC016A017B01722EAB019601CB01B60101
:1005C0000E948D096EE171E0811126C0460157013C
:1005D000E894B7F82FEF3FEF4FE75FE7C501B401AD
:1005E0000E948D0981110CC02FEF3FEF4FE75FE7AD
:1005F000C501B4010E94C30762E271E0181664F0FD
:100600002FEF3FEF4FE75FE4C701B6010E941B09E0
:100610001816B4F466E271E0CE01DF91CF911F911C
:10062000FF90EF90DF90CF90BF90AF909F908F9012
:100630007F906F905F904F903F902F900C946C0242
:100640002FEF3FEF4FE75FECC701B6010E94C307F2
:1006500087FDE0CF20E030E0A901C701B6010E948C
:10066000C307312C212C87FF0DC0E881F98101904F
:10067000F081E02D6DE2CE0109951C01F7FAF094AE
:10068000F7F8F09410E060E070E080E09FE371160E
:1006900041F020E030E040E251E40E94C8071F5FD3
:1006A000F6CFA70196010E9457072B013C010E943B
:1006B0003A084B015C012AE0BC01A401CE010E9472
:1006C0007B027C01E20CF31C1123E1F1C501B401B2
:1006D0000E9469089B01AC01C301B2010E94560748
:1006E0004B015C01E881F9810190F081E02D6EE21F
:1006F000CE010995E80EF91E115020F120E030E0FE
:1007000040E251E4C501B4010E9420092B013C01E3
:100710000E943A084B01B12CA12C2AE0B501A4019A
:10072000CE010E947B02E80EF91EC501B4010E94B1
:1007300069089B01AC01C301B2010E9456074B013D
:100740005C01DACFC701DF91CF911F91FF90EF904D
:10075000DF90CF90BF90AF909F908F907F906F90E1
:100760005F904F903F902F900895CF93DF93EC01CF
:1007700060E08E810E94940161E08E810E9494016C
:1007800060E08E810E9494018BE891E00197F1F77F
:10079000DF91CF910895CF92DF92EF92FF920F9366
:1007A0001F93CF93DF936C017C0187E0E80EF11C6F
:1007B000D0E0C0E0062F10E0B8010C2E02C0759505
:1007C00067950A94E2F76170F70181917F010E94B9
:1007D00094012196C430D10579F7C601DF91CF91FC
:1007E0001F910F91FF90EF90DF90CF900C94B50385
:1007F000CF92DF92EF92FF920F931F93CF93DF93ED
:10080000EC01F62E642F8C810E9494018D818F3F24
:1008100019F060E00E9494010F2D10E08F8584FF95
:1008200025C06E0187E0C80ED11CF12CE12CB80167
:100830000E2C02C0759567950A94E2F76170F60177
:1008400081916F010E949401FFEFEF1AFF0A88E087
:10085000E816F10461F7CE01DF91CF911F910F915E
:10086000FF90EF90DF90CF900C94B503B80184E037
:10087000759567958A95E1F7CE010E94CB036F2DA0
:10088000CE01DF91CF911F910F91FF90EF90DF90FC
:10089000CF900C94CB0340E0682F8EE092E00C9454
:1008A000F80381E00E944B048BE39FE10197F1F78D
:1008B0000895CF93DF93823029F490911D029860C0
:1008C00090931D02809321021092220280E4809373
:1008D000230280E18093240280E58093250261E079
:1008E000809112020E94E001809113028F3F19F063
:1008F00061E00E94E00161E0809114020E94E00149
:10090000CEE0D2E09E012E50324080911D0284FD47
:100910000BC084E090E021962817390744F461E089
:100920008E810E94E001EECF88E090E0F4CF8BE36F
:100930009DE00197F1F760E0809112020E9494011E
:1009400060E0809114020E949401809113028F3F15
:1009500019F060E00E94940180911D0284FD34C072
:1009600063E08EE092E00E94CB03CBE4D6E4CE01BC
:100970000197F1F763E08EE092E00E94CB032197AC
:10098000F1F763E08EE092E00E94CB0383E592E012
:100990000197F1F762E08EE092E00E94CB03809134
:1009A0001D0280620E944B0484E080931E028CE052
:1009B0000E944B040E94510482E080931F0286E053
:1009C000DF91CF910C944B0480620E944B048BE426
:1009D00096E40197F1F780911D0280620E944B041A
:1009E00083E592E00197F1F780911D0280620E94F9
:1009F0004B04D5CF843008F083E090912102891711
:100A000010F08FEF890FE82FF0E0E25FFD4F84894F
:100A100080680C944B0441E00E94F80381E090E070
:100A200008951F920F920FB60F9211242F933F93A8
:100A30004F935F936F937F938F939F93AF93BF93E6
:100A4000EF93FF9381E791E00E940501FF91EF9101
:100A5000BF91AF919F918F917F916F915F914F91D6
:100A60003F912F910F900FBE0F901F9018951F92DE
:100A70000F920FB60F9211242F938F939F93EF93A2
:100A8000FF93E0918101F09182018081E0918701E3
:100A9000F091880182FD1BC0908180918A018F5F57
:100AA0008F7320918B01821741F0E0918A01F0E071
:100AB000EF58FE4F958F80938A01FF91EF919F91A0
:100AC0008F912F910F900FBE0F901F9018958081DE
:100AD000F4CF1F920F920FB60F9211242F933F93D2
:100AE0008F939F93AF93BF9380916701909168011B
:100AF000A0916901B0916A013091660123E0230F52
:100B00002D3758F50196A11DB11D209366018093E4
:100B1000670190936801A0936901B0936A01809185
:100B20006B0190916C01A0916D01B0916E010196E5
:100B3000A11DB11D80936B0190936C01A0936D0179
:100B4000B0936E01BF91AF919F918F913F912F9183
:100B50000F900FBE0F901F90189526E8230F029656
:100B6000A11DB11DD2CFE1E7F1E01382128288EE20
:100B700093E0A0E0B0E084839583A683B78384E00C
:100B800091E09183808385EC90E09587848784EC65
:100B900090E09787868780EC90E0918B808B81EC4A
:100BA00090E0938B828B82EC90E0958B848B86EC2B
:100BB00090E0978B868B118E128E138E148EEEE042
:100BC000F2E01382128286E191E0918380838BE0D0
:100BD00084838FEF85838AE0868389E0878388E03A
:100BE000808787E0818786E0828713861486158652
:100BF0001686178681E00C945904789484B5826037
:100C000084BD84B5816084BD85B5826085BD85B5B0
:100C1000816085BD80916E00816080936E0010922E
:100C200081008091810082608093810080918100A9
:100C3000816080938100809180008160809380003A
:100C40008091B10084608093B1008091B000816098
:100C50008093B00080917A00846080937A008091C4
:100C60007A00826080937A0080917A00816080931C
:100C70007A0080917A00806880937A001092C10097
:100C800082E00E945904E0918101F091820182E0AA
:100C90008083E0917D01F0917E011082E0917F01DF
:100CA000F09180018FEC808310928901E0918501A1
:100CB000F091860186E08083E0918301F0918401C8
:100CC000808180618083E0918301F0918401808143
:100CD00088608083E0918301F09184018081806845
:100CE0008083E0918301F091840180818F7D8083F6
:100CF00060E08FE00E94E00161E08DE00E94E00191
:100D000061E08CE00E94E00111E4C0E0D0E01093CB
:100D10007C0080917A00806480937A0080917A00D0
:100D200086FDFCCFE090780060917900F62EF0927D
:100D30007001E0926F0180E00E94FA04B701FF0C9D
:100D4000880B990B0E946B0820E030E040E85AE3E2
:100D50000E94200920E030E44CE955E40E9420097B
:100D600020E030E040E251E40E94C8076B017C01C2
:100D70006AE271E081E791E00E946C0222E0B70133
:100D8000A60181E791E00E94C70269E371E08EE06D
:100D900092E00E946C0222E0B701A6018EE092E090
:100DA0000E94C70220E030E040E252E4C701B601F1
:100DB0000E94C30787FF19C061E08DE00E94940183
:100DC00060E08CE00E94940185E00E94FA0464E4F3
:100DD00071E08EE092E00E946C0268EE73E080E0C9
:100DE00090E00E9436020E94510420E030E040E290
:100DF00052E4C701B6010E941B0918161CF520E039
:100E000030E040E752E4C701B6010E94C30787FF04
:100E100019C060E08CE00E94940161E08DE00E94C6
:100E2000940185E00E94FA0460E571E08EE092E0B2
:100E30000E946C0268EE73E080E090E00E9436024F
:100E40000E94510420E030E040E752E4C701B601BF
:100E50000E941B091816CCF460E08DE00E949401FA
:100E600060E08CE00E94940185E00E94FA0466E54F
:100E700071E08EE092E00E946C0268EE73E080E028
:100E800090E00E9436020E94510468EC70E080E01D
:100E900090E00E943602209709F439CF0E94F100B9
:100EA000882309F434CF0E94000031CF5058BB276B
:100EB000AA270E946E070C94E1080E94D30838F01C
:100EC0000E94DA0820F039F49F3F19F426F40C94BC
:100ED000D0080EF4E095E7FB0C94CA08E92F0E94B5
:100EE000F20858F3BA17620773078407950720F0D2
:100EF00079F4A6F50C9414090EF4E0950B2EBA2F94
:100F0000A02D0B01B90190010C01CA01A00111240F
:100F1000FF27591B99F0593F50F4503E68F11A16BB
:100F2000F040A22F232F342F4427585FF3CF46954C
:100F300037952795A795F0405395C9F77EF41F166E
:100F4000BA0B620B730B840BBAF09150A1F0FF0F38
:100F5000BB1F661F771F881FC2F70EC0BA0F621F24
:100F6000731F841F48F4879577956795B795F79514
:100F70009E3F08F0B0CF9395880F08F09927EE0FA9
:100F80009795879508950E94A60808F481E0089532
:100F90000E94DC070C94E1080E94DA0858F00E94D5
:100FA000D30840F029F45F3F29F00C94CA0851118E
:100FB0000C9415090C94D0080E94F20868F3992348
:100FC000B1F3552391F3951B550BBB27AA27621745
:100FD0007307840738F09F5F5F4F220F331F441F52
:100FE000AA1FA9F335D00E2E3AF0E0E832D0915086
:100FF0005040E695001CCAF72BD0FE2F29D0660F73
:10100000771F881FBB1F261737074807AB07B0E8B5
:1010100009F0BB0B802DBF01FF2793585F4F3AF0BB
:101020009E3F510578F00C94CA080C9415095F3F57
:10103000E4F3983ED4F3869577956795B795F79541
:101040009F5FC9F7880F911D9695879597F9089529
:10105000E1E0660F771F881FBB1F621773078407C5
:10106000BA0720F0621B730B840BBA0BEE1F88F7D4
:10107000E09508950E94FA0888F09F5798F0B92FDC
:101080009927B751B0F0E1F0660F771F881F991FBD
:101090001AF0BA95C9F714C0B13091F00E94140942
:1010A000B1E008950C941409672F782F8827B85F52
:1010B00039F0B93FCCF3869577956795B395D9F715
:1010C0003EF490958095709561957F4F8F4F9F4F1F
:1010D0000895E89409C097FB3EF49095809570952B
:1010E00061957F4F8F4F9F4F9923A9F0F92F96E974
:1010F000BB279395F695879577956795B795F111E9
:10110000F8CFFAF4BB0F11F460FF1BC06F5F7F4F85
:101110008F4F9F4F16C0882311F096E911C0772397
:1011200021F09EE8872F762F05C0662371F096E8A0
:10113000862F70E060E02AF09A95660F771F881F6F
:10114000DAF7880F9695879597F90895990F000813
:10115000550FAA0BE0E8FEEF16161706E807F90789
:10116000C0F012161306E407F50798F0621B730B24
:10117000840B950B39F40A2661F0232B242B252BA5
:1011800021F408950A2609F4A140A6958FEF811D48
:10119000811D089597F99F6780E870E060E00895E9
:1011A0009FEF80EC089500240A941616170618067F
:1011B0000906089500240A9412161306140605065B
:1011C0000895092E0394000C11F4882352F0BB0FEC
:1011D00040F4BF2B11F460FF04C06F5F7F4F8F4F4F
:1011E0009F4F089557FD9058440F551F59F05F3F8A
:1011F00071F04795880F97FB991F61F09F3F79F039
:1012000087950895121613061406551FF2CF4695BA
:10121000F1DF08C0161617061806991FF1CF86953C
:101220007105610508940895E894BB276627772720
:10123000CB0197F908950E94A60808F48FEF08954E
:101240000E9433090C94E1080E94D30838F00E94F0
:10125000DA0820F0952311F00C94CA080C94D008F9
:1012600011240C9415090E94F20870F3959FC1F3A4
:10127000950F50E0551F629FF001729FBB27F00D44
:10128000B11D639FAA27F00DB11DAA1F649F662799
:10129000B00DA11D661F829F2227B00DA11D621FE8
:1012A000739FB00DA11D621F839FA00D611D221FA2
:1012B000749F3327A00D611D231F849F600D211D86
:1012C000822F762F6A2F11249F5750409AF0F1F009
:1012D00088234AF0EE0FFF1FBB1F661F771F881F72
:1012E00091505040A9F79E3F510580F00C94CA08D8
:1012F0000C9415095F3FE4F3983ED4F386957795F7
:101300006795B795F795E7959F5FC1F7FE2B880F17
:10131000911D9695879597F908950E94A608880BC8
:10132000990B0895A1E21A2EAA1BBB1BFD010DC04B
:10133000AA1FBB1FEE1FFF1FA217B307E407F50785
:1013400020F0A21BB30BE40BF50B661F771F881F61
:10135000991F1A9469F760957095809590959B01F7
:10136000AC01BD01CF010895EE0FFF1F0590F49170
:10137000E02D0994F894FFCF0000000027018700BA
:10138000B4007401E500C300D700000000000B05A5
:101390008700690268026E616E00696E66006F7692
:1013A000660054656D7065726174757265203D20CC
:1013B0000054656D702043C2B03A200053746162DE
:1013C0006C6520F09F988300416C657274004649FB
:0E13D000524520414C4552542021212100005D
:107E0000112484B714BE81FFF0D085E080938100F7
:107E100082E08093C00088E18093C10086E0809377
:107E2000C20080E18093C4008EE0C9D0259A86E02C
:107E300020E33CEF91E0309385002093840096BBD3
:107E4000B09BFECF1D9AA8958150A9F7CC24DD24C4
:107E500088248394B5E0AB2EA1E19A2EF3E0BF2EE7
:107E6000A2D0813461F49FD0082FAFD0023811F036
:107E7000013811F484E001C083E08DD089C08234E0
:107E800011F484E103C0853419F485E0A6D080C0E4
:107E9000853579F488D0E82EFF2485D0082F10E0AE
:107EA000102F00270E291F29000F111F8ED06801E7
:107EB0006FC0863521F484E090D080E0DECF843638
:107EC00009F040C070D06FD0082F6DD080E0C81688
:107ED00080E7D80618F4F601B7BEE895C0E0D1E017
:107EE00062D089930C17E1F7F0E0CF16F0E7DF06D8
:107EF00018F0F601B7BEE89568D007B600FCFDCFD4
:107F0000A601A0E0B1E02C9130E011968C91119780
:107F100090E0982F8827822B932B1296FA010C0160
:107F200087BEE89511244E5F5F4FF1E0A038BF0790
:107F300051F7F601A7BEE89507B600FCFDCF97BE46
:107F4000E89526C08437B1F42ED02DD0F82E2BD052
:107F50003CD0F601EF2C8F010F5F1F4F84911BD097
:107F6000EA94F801C1F70894C11CD11CFA94CF0C13
:107F7000D11C0EC0853739F428D08EE10CD085E9AC
:107F80000AD08FE07ACF813511F488E018D01DD067
:107F900080E101D065CF982F8091C00085FFFCCF94
:107FA0009093C60008958091C00087FFFCCF809118
:107FB000C00084FD01C0A8958091C6000895E0E648
:107FC000F0E098E1908380830895EDDF803219F02E
:107FD00088E0F5DFFFCF84E1DECF1F93182FE3DFCA
:107FE0001150E9F7F2DF1F91089580E0E8DFEE27F6
:047FF000FF270994CA
:027FFE00040479
:00000001FF
